:1000000001C0DCC0112480914000882359F083FD99
:1000100003C0982F9D7F31F4809340008CBB80E01B
:10002000B5D0EEC0A895019A099A81E080930102AB
:10003000809182128370813019F487E594E002C0C8
:100040008CE695E0809308089093090881E08093FE
:100050000B0883E08093070888E08093050888EC0C
:10006000809306088AE092D0069A87E0815061F07A
:10007000169A2EEC36E5A8959091040897FD05C0D8
:1000800021503109C1F7F2CFA8950DE983E0D82EB0
:1000900067D0813471F464D0182F81D0123811F4F4
:1000A00081E005C0113811F481E701C083E064D01C
:1000B00054C0823411F484E103C0853419F485E01E
:1000C00076D04BC0853529F44BD0C82F49D0D82FD6
:1000D00043C0863521F484E06AD080E0E8CF8436DE
:1000E000B9F43ED03DD0182F3BD0863411F4D0580F
:1000F00001C0DC5E35D0888321961150D9F74FD0EE
:1001000004BFD0920010809102108370E1F725C0E7
:10011000843791F425D024D0182F22D0F82E3FD048
:1001200086E4F81202C0D05801C0DC5E88812196B6
:1001300023D01150D9F711C0853751F430D08091B8
:1001400000111AD08091011117D080910211AFCF08
:10015000813511F481E01AD022D080E10DD098CF02
:100160008091040887FFFCCF9091010880910008DE
:1001700092FD01C0A895089580930208809104081B
:1001800086FFFCCF80E480930408EACF90910101C0
:1001900090FDFCCF98ED94BF809300010895E0DFBF
:1001A000803219F081E0F2DFFFCF84E1E5CFCF9319
:1001B000C82FD6DFC150E9F7CF91F1CF683048F4AE
:1001C0008DE984BF60930010809102108370E1F785
:0801D0000895FC01408308952D
:0201FE0001718D
:00000001FF
