:101D800001C033C1112484B7882371F083FF0CC0D4
:101D9000982F937019F094B7977F94BF282E80E006
:101DA00008D1EEE0FF27099485E08EBD80E18093A5
:101DB000850086E0809384001092820087E68093FD
:101DC000810088E2F6D0D69A86E028E13EEF91E0E5
:101DD0003DBD2CBD9EB9709BFECFCE9AA89540917B
:101DE000860047FD02C0815099F7AA24A39495E08C
:101DF000992E22ECC22E2EE0D22E8D2D806C882EB4
:101E0000CCD0813461F4C9D0182FD8D01238E9F081
:101E1000113811F485E401C083E0ADD0A9C082344B
:101E200011F484E103C0853419F485E0D7D0A0C053
:101E3000853539F4B2D0C82FB0D0D82FCC0FDD1FE4
:101E400096C0863521F484E0C9D080E0E6CF8436A0
:101E500009F057C0A2D0A1D0B82E9FD0782E00E0B4
:101E600011E09BD0F80181938F01BE12FACFA6D06A
:101E7000209769F4809100018093240180910101F1
:101E800080932501C09200018092010119C0C031E8
:101E9000D105B1F4E0902401F090250180910C016E
:101EA0008093260180910D0180932701FEE0EF1AB7
:101EB000F108E0920C018F2D8F70806C80930D01E2
:101EC00085E4781201C0FFCF8C2F8F7339F483E043
:101ED000FE0187BFE89507B600FCFDCFFE01A0E03C
:101EE000B1E08D919D910C01A7BEE8951124329629
:101EF000BA12F7CFFE0197BEE89507B600FCFDCFFA
:101F000037C0843739F549D048D0B82E46D056D09E
:101F10008E010115110519F48091240114C00130BE
:101F2000110519F4809125010EC00C31110519F429
:101F30008091260108C00D31110519F48091270107
:101F400002C0F801849117D0BA940F5F1F4FB110EF
:101F5000E0CF0EC0853739F431D08EE10CD083E963
:101F60000AD085E15ACF813511F488E022D026D0FD
:101F700080E101D045CF98E0909385009091860054
:101F8000906490938600809380008091860086FF05
:101F9000FCCF80E18093850008958091860087FFC3
:101FA000FCCF8091860084FD01C0A89580918000BF
:101FB000089598ED9093710081BD0895EEDF803211
:101FC00019F088E0F6DFFFCF89ED9FEF9DBD8CBD56
:101FD00081E08EB9709BFECF84E1CDCFCF93C82F27
:101FE000DCDFC150E9F7CF91E9CFFC010A0167BFFF
:0C1FF000E895112407B600FCFDCF089511
:021FFE0000459C
:0400000300001D805C
:00000001FF
